{
  "contractName": "Loan",
  "abi": [
    {
      "inputs": [
        {
          "internalType": "uint256",
          "name": "_amount",
          "type": "uint256"
        },
        {
          "internalType": "uint256",
          "name": "_interest",
          "type": "uint256"
        },
        {
          "internalType": "uint256",
          "name": "_duration",
          "type": "uint256"
        },
        {
          "internalType": "address payable",
          "name": "_borrower",
          "type": "address"
        },
        {
          "internalType": "address payable",
          "name": "_lender",
          "type": "address"
        }
      ],
      "stateMutability": "nonpayable",
      "type": "constructor"
    },
    {
      "inputs": [],
      "name": "amount",
      "outputs": [
        {
          "internalType": "uint256",
          "name": "",
          "type": "uint256"
        }
      ],
      "stateMutability": "view",
      "type": "function",
      "constant": true
    },
    {
      "inputs": [],
      "name": "borrower",
      "outputs": [
        {
          "internalType": "address payable",
          "name": "",
          "type": "address"
        }
      ],
      "stateMutability": "view",
      "type": "function",
      "constant": true
    },
    {
      "inputs": [],
      "name": "duration",
      "outputs": [
        {
          "internalType": "uint256",
          "name": "",
          "type": "uint256"
        }
      ],
      "stateMutability": "view",
      "type": "function",
      "constant": true
    },
    {
      "inputs": [],
      "name": "end",
      "outputs": [
        {
          "internalType": "uint256",
          "name": "",
          "type": "uint256"
        }
      ],
      "stateMutability": "view",
      "type": "function",
      "constant": true
    },
    {
      "inputs": [],
      "name": "interest",
      "outputs": [
        {
          "internalType": "uint256",
          "name": "",
          "type": "uint256"
        }
      ],
      "stateMutability": "view",
      "type": "function",
      "constant": true
    },
    {
      "inputs": [],
      "name": "lender",
      "outputs": [
        {
          "internalType": "address payable",
          "name": "",
          "type": "address"
        }
      ],
      "stateMutability": "view",
      "type": "function",
      "constant": true
    },
    {
      "inputs": [],
      "name": "state",
      "outputs": [
        {
          "internalType": "enum Loan.State",
          "name": "",
          "type": "uint8"
        }
      ],
      "stateMutability": "view",
      "type": "function",
      "constant": true
    },
    {
      "inputs": [],
      "name": "lend",
      "outputs": [],
      "stateMutability": "payable",
      "type": "function",
      "payable": true
    },
    {
      "inputs": [],
      "name": "reimburse",
      "outputs": [],
      "stateMutability": "payable",
      "type": "function",
      "payable": true
    }
  ],
  "bytecode": "0x608060405260008060006101000a81548160ff021916908360028111156200002c576200002b62000106565b5b02179055503480156200003e57600080fd5b5060405162001012380380620010128339818101604052810190620000649190620001da565b84600181905550836002819055508260048190555081600560006101000a81548173ffffffffffffffffffffffffffffffffffffffff021916908373ffffffffffffffffffffffffffffffffffffffff16021790555080600660006101000a81548173ffffffffffffffffffffffffffffffffffffffff021916908373ffffffffffffffffffffffffffffffffffffffff160217905550505050505062000262565b7f4e487b7100000000000000000000000000000000000000000000000000000000600052602160045260246000fd5b600080fd5b6000819050919050565b6200014f816200013a565b81146200015b57600080fd5b50565b6000815190506200016f8162000144565b92915050565b600073ffffffffffffffffffffffffffffffffffffffff82169050919050565b6000620001a28262000175565b9050919050565b620001b48162000195565b8114620001c057600080fd5b50565b600081519050620001d481620001a9565b92915050565b600080600080600060a08688031215620001f957620001f862000135565b5b600062000209888289016200015e565b95505060206200021c888289016200015e565b94505060406200022f888289016200015e565b93505060606200024288828901620001c3565b92505060806200025588828901620001c3565b9150509295509295909350565b610da080620002726000396000f3fe6080604052600436106100865760003560e01c8063bcead63e11610059578063bcead63e14610116578063c19d93fb14610141578063c392f7661461016c578063d3927c1514610197578063efbe1c1c146101a157610086565b80630fb5a6b41461008b5780637df1f1b9146100b657806397dffc61146100e1578063aa8c217c146100eb575b600080fd5b34801561009757600080fd5b506100a06101cc565b6040516100ad91906107d5565b60405180910390f35b3480156100c257600080fd5b506100cb6101d2565b6040516100d89190610831565b60405180910390f35b6100e96101f8565b005b3480156100f757600080fd5b50610100610343565b60405161010d91906107d5565b60405180910390f35b34801561012257600080fd5b5061012b610349565b6040516101389190610831565b60405180910390f35b34801561014d57600080fd5b5061015661036f565b60405161016391906108c3565b60405180910390f35b34801561017857600080fd5b50610181610380565b60405161018e91906107d5565b60405180910390f35b61019f610386565b005b3480156101ad57600080fd5b506101b66104eb565b6040516101c391906107d5565b60405180910390f35b60045481565b600560009054906101000a900473ffffffffffffffffffffffffffffffffffffffff1681565b600660009054906101000a900473ffffffffffffffffffffffffffffffffffffffff1673ffffffffffffffffffffffffffffffffffffffff163373ffffffffffffffffffffffffffffffffffffffff1614610288576040517f08c379a000000000000000000000000000000000000000000000000000000000815260040161027f9061093b565b60405180910390fd5b60015447146102cc576040517f08c379a00000000000000000000000000000000000000000000000000000000081526004016102c3906109a7565b60405180910390fd5b6102d660016104f1565b600560009054906101000a900473ffffffffffffffffffffffffffffffffffffffff1673ffffffffffffffffffffffffffffffffffffffff166108fc6001549081150290604051600060405180830381858888f19350505050158015610340573d6000803e3d6000fd5b50565b60015481565b600660009054906101000a900473ffffffffffffffffffffffffffffffffffffffff1681565b60008054906101000a900460ff1681565b60025481565b600560009054906101000a900473ffffffffffffffffffffffffffffffffffffffff1673ffffffffffffffffffffffffffffffffffffffff163373ffffffffffffffffffffffffffffffffffffffff1614610416576040517f08c379a000000000000000000000000000000000000000000000000000000000815260040161040d90610a13565b60405180910390fd5b6002546001546104269190610a62565b3414610467576040517f08c379a000000000000000000000000000000000000000000000000000000000815260040161045e90610b08565b60405180910390fd5b61047160026104f1565b600660009054906101000a900473ffffffffffffffffffffffffffffffffffffffff1673ffffffffffffffffffffffffffffffffffffffff166108fc6002546001546104bd9190610a62565b9081150290604051600060405180830381858888f193505050501580156104e8573d6000803e3d6000fd5b50565b60035481565b600060028111156105055761050461084c565b5b8160028111156105185761051761084c565b5b03610558576040517f08c379a000000000000000000000000000000000000000000000000000000000815260040161054f90610b9a565b60405180910390fd5b60008054906101000a900460ff1660028111156105785761057761084c565b5b81600281111561058b5761058a61084c565b5b036105cb576040517f08c379a00000000000000000000000000000000000000000000000000000000081526004016105c290610c06565b60405180910390fd5b600160028111156105df576105de61084c565b5b8160028111156105f2576105f161084c565b5b036106aa576000600281111561060b5761060a61084c565b5b60008054906101000a900460ff16600281111561062b5761062a61084c565b5b1461066b576040517f08c379a000000000000000000000000000000000000000000000000000000000815260040161066290610c72565b60405180910390fd5b60016000806101000a81548160ff021916908360028111156106905761068f61084c565b5b0217905550600454426106a39190610a62565b6003819055505b6002808111156106bd576106bc61084c565b5b8160028111156106d0576106cf61084c565b5b036107b957600160028111156106e9576106e861084c565b5b60008054906101000a900460ff1660028111156107095761070861084c565b5b14610749576040517f08c379a000000000000000000000000000000000000000000000000000000000815260040161074090610cde565b60405180910390fd5b60035442101561078e576040517f08c379a000000000000000000000000000000000000000000000000000000000815260040161078590610d4a565b60405180910390fd5b60026000806101000a81548160ff021916908360028111156107b3576107b261084c565b5b02179055505b50565b6000819050919050565b6107cf816107bc565b82525050565b60006020820190506107ea60008301846107c6565b92915050565b600073ffffffffffffffffffffffffffffffffffffffff82169050919050565b600061081b826107f0565b9050919050565b61082b81610810565b82525050565b60006020820190506108466000830184610822565b92915050565b7f4e487b7100000000000000000000000000000000000000000000000000000000600052602160045260246000fd5b6003811061088c5761088b61084c565b5b50565b600081905061089d8261087b565b919050565b60006108ad8261088f565b9050919050565b6108bd816108a2565b82525050565b60006020820190506108d860008301846108b4565b92915050565b600082825260208201905092915050565b7f6f6e6c79206c656e6465722063616e206c656e64000000000000000000000000600082015250565b60006109256014836108de565b9150610930826108ef565b602082019050919050565b6000602082019050818103600083015261095481610918565b9050919050565b7f63616e206f6e6c79206c656e642074686520657861637420616d6f756e740000600082015250565b6000610991601e836108de565b915061099c8261095b565b602082019050919050565b600060208201905081810360008301526109c081610984565b9050919050565b7f6f6e6c7920626f72726f7765722063616e207265696d62757273650000000000600082015250565b60006109fd601b836108de565b9150610a08826109c7565b602082019050919050565b60006020820190508181036000830152610a2c816109f0565b9050919050565b7f4e487b7100000000000000000000000000000000000000000000000000000000600052601160045260246000fd5b6000610a6d826107bc565b9150610a78836107bc565b9250828201905080821115610a9057610a8f610a33565b5b92915050565b7f626f72726f776572206e65656420746f207265696d627572736520657861637460008201527f6c7920616d6f756e74202b20696e746572657374000000000000000000000000602082015250565b6000610af26034836108de565b9150610afd82610a96565b604082019050919050565b60006020820190508181036000830152610b2181610ae5565b9050919050565b7f737461746520697320616c726561647920696e20612070656e64696e6720737460008201527f6174650000000000000000000000000000000000000000000000000000000000602082015250565b6000610b846023836108de565b9150610b8f82610b28565b604082019050919050565b60006020820190508181036000830152610bb381610b77565b9050919050565b7f7472616e736974696f6e2073746174652063616e6e6f742062652073616d6500600082015250565b6000610bf0601f836108de565b9150610bfb82610bba565b602082019050919050565b60006020820190508181036000830152610c1f81610be3565b9050919050565b7f7374617465206973206e6f742070656e64696e67000000000000000000000000600082015250565b6000610c5c6014836108de565b9150610c6782610c26565b602082019050919050565b60006020820190508181036000830152610c8b81610c4f565b9050919050565b7f7374617465206973206e6f742061637469766500000000000000000000000000600082015250565b6000610cc86013836108de565b9150610cd382610c92565b602082019050919050565b60006020820190508181036000830152610cf781610cbb565b9050919050565b7f6c6f616e20686173206e6f74206d617475726564207965740000000000000000600082015250565b6000610d346018836108de565b9150610d3f82610cfe565b602082019050919050565b60006020820190508181036000830152610d6381610d27565b905091905056fea26469706673582212208d65bc9fd31be43fb82c3859e7116aa8a87635a4261f97017858b3779adffd6964736f6c63430008110033",
  "immutableReferences": {},
  "source": "//SPDX-License-Identifier: UNLICENSED\r\npragma solidity >=0.5.0 <0.9.0;\r\n\r\ncontract Loan {\r\n    enum State {\r\n        PENDING,\r\n        ACTIVE,\r\n        CLOSED\r\n    }\r\n    State public state = State.PENDING;\r\n    uint256 public amount;\r\n    uint256 public interest;\r\n    uint256 public end;\r\n    uint256 public duration;\r\n    address payable public borrower;\r\n    address payable public lender;\r\n\r\n    constructor(\r\n        uint256 _amount,\r\n        uint256 _interest,\r\n        uint256 _duration,\r\n        address payable _borrower,\r\n        address payable _lender\r\n    ) {\r\n        amount = _amount;\r\n        interest = _interest;\r\n        duration = _duration;\r\n        borrower = _borrower;\r\n        lender = _lender;\r\n    }\r\n\r\n    function lend() external payable {\r\n        require(msg.sender == lender, \"only lender can lend\");\r\n        require(\r\n            address(this).balance == amount,\r\n            \"can only lend the exact amount\"\r\n        );\r\n        changeState(State.ACTIVE);\r\n        borrower.transfer(amount);\r\n    }\r\n\r\n    function reimburse() external payable {\r\n        require(msg.sender == borrower, \"only borrower can reimburse\");\r\n        require(\r\n            msg.value == amount + interest,\r\n            \"borrower need to reimburse exactly amount + interest\"\r\n        );\r\n        changeState(State.CLOSED);\r\n        lender.transfer(amount + interest);\r\n    }\r\n\r\n    function changeState(State to) internal {\r\n        require(to != State.PENDING, \"state is already in a pending state\");\r\n        require(to != state, \"transition state cannot be same\");\r\n        if (to == State.ACTIVE) {\r\n            require(state == State.PENDING, \"state is not pending\");\r\n            state = State.ACTIVE;\r\n            end = block.timestamp + duration;\r\n        }\r\n        if (to == State.CLOSED) {\r\n            require(state == State.ACTIVE, \"state is not active\");\r\n            require(block.timestamp >= end, \"loan has not matured yet\"); //35 <133 //35 =35\r\n            state = State.CLOSED;\r\n        }\r\n    }\r\n}\r\n",
  "sourcePath": "C:\\Users\\HARI KRISH\\Desktop\\Truffleware\\contracts\\Loan.sol",
  "compiler": {
    "name": "solc",
    "version": "0.8.17+commit.8df45f5f.Emscripten.clang"
  },
  "schemaVersion": "3.4.16",
  "updatedAt": "2023-11-20T09:04:25.126Z",
  "networkType": "ethereum",
  "devdoc": {
    "kind": "dev",
    "methods": {},
    "version": 1
  },
  "userdoc": {
    "kind": "user",
    "methods": {},
    "version": 1
  }
}